:020000040000fa
:080000000001040000000000f3
:020000040000fa
:100200000fee20000eff20000e018800000000000d
:100210000c000700601826000100200011000700f4
:10022000000020000000e000020032000000020098
:100230000000000086330200000000000040da00e9
:100240000000fe004440a900600d23000000e00013
:100250000300320000002000a00188004440a800f4
:100260000000060091018800800078000000eb008b
:1002700015003700e280400032a0b4009101ba00be
:10028000e280400032a0b4009102ba00e280400057
:1002900032a0b4000002eb00472bde00f507b200ed
:1002a000602ce10004003a000059eb008301e900f2
:1002b000fdff3e00040037006128e100010032002c
:1002c0000082eb00040007001101ba000200e00008
:1002d000e8ff3a00000006003159ba008301e90046
:1002e0000c0032002159ba008301e90008003200f5
:1002f0000400e00003003a00e280400032a0b400b5
:10030000f5ff370011d9ba008301e900faff3a007e
:100310008100e800e180400032a0b4000000060047
:100320000040da000000fe003200f8009101880071
:100330000008bb00410424006210e1000400320008
:10034000000220000010e1000a003a0051042400dd
:10035000013b88000500fc0051052000313b88006e
:10036000a10a2000313b880061e7a80000000000de
:10037000000000003200f900000006003200f80022
:1003800060042400003b8800f2ff37003200f800d0
:100390009101880041002400013b88000208bb0055
:1003a000ecff37003200f800910188005100240072
:1003b000013b8800030120003218bb008301e900e3
:1003c000fdff3a00e3ff37003200f800910188009a
:1003d0008002780062004000e08048003549ba00a1
:1003e0003204e0000410a700100032008301e9008d
:1003f0000e0032002549ba003204e0000410a700c4
:100400000a0032008301e900080032000408a3005a
:10041000eeff320015c9ba003204e0000410a70054
:10042000020032008301e900e8ff3a003200f900df
:1004300000000600839f68000100e00002003d000c
:1004400060001000e08018000300e00002003d00a2
:1004500060011100e0811900050007004f00e00075
:1004600002003b0060001000e08018000000060061
:100470006022b800060220000000d0008180d20077
:100480000482d2008582d2000000a0000202520045
:1004900083825a00030031000202420083824a0034
:1004a0000000a1000603e900f3ff3a000000060087
:1004b0000001780000c2b300010037000201e8002b
:1004c0009240780080cf5000fcff3200e9cf50000e
:1004d000faff3200d0c2b30080cf500003003a00d0
:1004e0000201e80014c0b300050037000042eb0031
:1004f000b0c2b30080cf500001003a000201e80012
:100500008000eb0005fd2f00040037006a08b900e9
:1005100000804100850040000201e8009201fb00dc
:1005200005804100e90f5000f8ff36000404e000a8
:10053000010032008100ea0001007800000006009e
:1005400010417800b141510003003a000000e8007a
:100550000204e000faff3a000300fb00000006007e
:020000040000fa
:0200000401f009
:04000000f7ff000006
:020000040000fa
:0200000401f009
:04000400ff7f00007a
:020000040000fa
:0200000401f009
:04000800efff000006
:020000040000fa
:0200000401f009
:04001400ffff0000ea
:020000040000fa
:100008009001000036500000285000001a500000ef
:100018000c500000900100009001000090010000c9
:100028009001000090010000900100009001000084
:100038009001000090010000900100009001000074
:100048009001000090010000900100001c370000a2
:10005800900100009001000090010000144700008a
:100068009001000090010000900100009001000044
:100078009001000090010000900100009001000034
:1000880078500000900100009001000090010000ed
:100098009001000090010000900100009001000014
:1000a8009001000090010000900100009001000004
:1000b80090010000900100009001000090010000f4
:1000c80090010000900100009001000090010000e4
:1000d80090010000900100009001000090010000d4
:1000e80090010000900100009001000090010000c4
:0800f8009001000090010000de
:020000040000fa
:100108009001000036500000285000001a500000ee
:100118000c500000900100009001000090010000c8
:100128009001000090010000900100009001000083
:100138009001000090010000900100009001000073
:100148009001000090010000900100001c370000a1
:100158009001000090010000900100001447000089
:100168009001000090010000900100009001000043
:100178009001000090010000900100009001000033
:1001880078500000900100009001000090010000ec
:100198009001000090010000900100009001000013
:1001a8009001000090010000900100009001000003
:1001b80090010000900100009001000090010000f3
:1001c80090010000900100009001000090010000e3
:1001d80090010000900100009001000090010000d3
:1001e80090010000900100009001000090010000c3
:0801f8009001000090010000dd
:020000040000fa
:1005600001000000a00f000040000000e0010000ba
:1005700086010000ea010000fe01000062020000a6
:1005800005000000c8000000c8000000c80000000e
:10059000c800000032000000000000000000000061
:1005a000000000000d0000000200000070170000b5
:1005b00000000000400000000000000000000000fb
:1005c000000000000000000000000000000000002b
:1005d000000000000000000000000000000000001b
:1005e000707f0000c77900001f740000766e000065
:1005f000ce68000025630000dc5e0000935a000016
:100600004b56000002520000b94d0000744a000031
:100610002f470000e9430000a44000005f3d0000b8
:10062000db3a000058380000d43500005133000098
:10063000cd300000da2e0000e82c0000f52a000082
:1006400003290000102700008b250000062400006d
:1006500082220000fd200000781f0000471e0000dd
:10066000151d0000e41b0000b31a000082190000f1
:10067000911800009f170000ae160000bd15000085
:10068000cc1400000c1400004c1300008d1200006c
:10069000cd1100000d11000074100000db0f0000f0
:1006a000410f0000a80e00000f0e0000930d000087
:1006b000180d00009d0c0000220c0000a60b00008d
:1006c000430b0000df0a00007b0a0000180a00004c
:1006d000b40900006309000012090000c10800000d
:1006e000700800001f080000dd0700009a070000e6
:1006f0005807000016070000d40600009d06000001
:100700006706000031060000fa050000c40500007d
:10071000970500006a0500003d0500001105000076
:10072000e4040000bf0400009a0400007404000008
:100730004f0400002a0400000b040000ec0300003a
:10074000cd030000ae03000090030000760300001c
:100750005c03000042030000280300000e030000b9
:10076000f9020000e3020000cd020000b802000020
:10077000a2020000900200007e0200006b02000056
:100780005902000047020000370200002802000062
:100790001902000009020000fa010000ed0100004a
:1007a000df010000d2010000c5010000b801000017
:1007b000ad010000a2010000970100008c010000c3
:1007c00080010000770100006d010000640100005d
:1007d0005a01000051010000470100007b14000095
:1007e00011110000a10e0000cd0c0000610b0000f3
:1007f0003d0a00004f09000089080000e0070000e2
:1008000050070000d406000066060000060600003f
:10081000b0050000640500001f050000e0040000b2
:10082000a80400007404000044040000190400003f
:10083000f0030000cb030000a803000088030000c1
:100840006a0300004e030000330300001a03000097
:1008500003030000ed020000d8020000c402000003
:10086000b2020000a00200008f0200007f02000020
:100870007002000062020000540200004702000003
:100880003a0200002e0200002202000017020000bf
:100890000c02000002020000f8010000ef0100005d
:1008a000e5010000dd010000d4010000cc010000e2
:1008b000c4010000bc010000b5010000ae01000051
:1008c000a7010000a00100009a01000093010000b0
:1008d0008d01000087010000820100007c01000002
:1008e00076010000710100006c010000670100004a
:1008f000620100005e010000590100005401000087
:10090000500100004c0100004801000044010000bb
:10091000400100003c0100003801000034010000eb
:10092000310100002d0100002a0100002701000014
:1009300023010000200100001d0100001a01000039
:100940001701000014010000110100000e01000059
:100950000b01000009010000060100000401000075
:1009600001010000ff000000fc000000fa00000090
:10097000f7000000f5000000f3000000f0000000a8
:10098000ee000000ec000000ea000000e8000000bb
:10099000e6000000e4000000e2000000e0000000cb
:1009a000de000000dc000000da000000d9000000da
:1009b000d7000000d5000000d3000000d2000000e6
:1009c000d0000000ce000000cd000000cb000000f1
:1009d000ca000000c8000000c7000000c5000000f9
:1009e000c4000000c2000000c1000000bf00000001
:1009f000be000000bd000000bb000000ba00000007
:100a0000b9000000b7000000b6000000b50000000b
:100a1000b4000000b2000000b1000000b00000000f
:100a2000af000000a6fe000035d40000e4b50000d1
:100a3000289f0000798d0000537f0000c0730000e4
:100a40001a6a0000f1610000f25a0000e25400004e
:100a5000944f0000e54a0000bc460000034300003c
:100a6000a93f0000a13c0000e03900005c37000015
:100a70000d350000ee320000f9300000282f000094
:100a8000792d0000e82b0000712a000012290000d7
:100a9000ca2700009526000073250000612400008d
:100aa0005e2300006922000082210000a6200000d1
:100ab000d51f00000e1f0000511e00009c1d0000ed
:100ac000f01c00004b1c0000ae1b0000171b0000b8
:100ad000871a0000fc19000077190000f7180000c1
:100ae0007c1800000618000094170000261700006c
:100af000bd16000056160000f41500009515000004
:100b000038150000df1400008914000036140000be
:100b1000e5130000971300004b13000001130000c1
:100b2000b91200007412000030120000ef11000032
:100b3000af1100007111000035110000fa10000023
:100b4000c110000089100000531000001e100000aa
:100b5000ea0f0000b80f0000870f0000570f0000d9
:100b6000280f0000fb0e0000ce0e0000a30e0000b8
:100b7000780e00004e0e0000260e0000fe0d000054
:100b8000d70d0000b10d00008c0d0000670d0000b6
:100b9000430d0000200d0000fe0c0000dc0c0000e6
:100ba000bb0c00009b0c00007c0c00005d0c0000e6
:100bb0003e0c0000200c0000030c0000e60b0000bf
:100bc000ca0b0000ae0b0000930b0000780b000076
:100bd0005e0b0000450b00002b0b0000120b000009
:100be000fa0a0000e20a0000ca0a0000b30a000084
:100bf0009c0a0000860a0000700a00005a0a0000e1
:100c0000450a0000300a00001b0a0000070a000025
:100c1000f2090000df090000cb090000b80900005c
:100c2000a509000093090000800900006e0900007a
:100c30005d0900004b0900003a0900002909000085
:100c40001809000008090000f7080000e708000084
:100c5000d8080000c8080000b9080000a908000072
:100c60009a0800008c0800007d0800000080000049
:100c7000f67f0000ec7f0000e27f0000d87f0000dc
:100c8000ce7f0000c57f0000bb7f0000b17f000069
:100c9000a87f00009e7f0000947f00008b7f0000f3
:100ca000817f0000787f00006e7f0000657f00007c
:100cb0005b7f0000527f0000497f00003f7f000003
:100cc000367f00002d7f0000247f00001b7f000086
:100cd000127f0000097f0000007f0000f77e000007
:100ce000ee7e0000e57e0000dc7e0000d37e00008a
:100cf000ca7e0000c17e0000b97e0000b07e000008
:100d0000a77e00009f7e0000967e00008e7e000081
:100d1000857e00007d7e0000747e00006c7e0000f9
:100d2000637e00005b7e0000537e00004a7e000070
:100d3000427e00003a7e0000327e00002a7e0000e3
:100d4000227e00001a7e0000127e00000a7e000053
:100d5000027e0000fa7d0000f27d0000ea7d0000c6
:100d6000e27d0000da7d0000d37d0000cb7d000035
:100d7000c37d0000bc7d0000b47d0000ad7d00009f
:100d8000a57d00009e7d0000967d00008f7d000007
:100d9000877d0000807d0000797d0000717d00006e
:100da0006a7d0000637d00005c7d0000557d0000d1
:100db0004d7d0000467d00003f7d0000387d000035
:100dc000317d00002a7d0000247d00001d7d000093
:100dd000167d00000f7d0000087d0000027d0000f0
:100de000fb7c0000f47c0000ee7c0000e77c00004f
:100df000e07c0000da7c0000d37c0000cd7c0000a9
:100e0000c67c0000c07c0000ba7c0000b37c0000ff
:100e1000ad7c0000a77c0000a17c00009a7c000053
:100e2000947c00008e7c0000887c0000827c0000a6
:100e30007c7c0000767c0000707c00006a7c0000f6
:100e4000647c00005e7c0000587c0000537c000045
:100e50004d7c0000477c0000427c00003c7c000090
:100e6000367c0000317c00002b7c0000267c0000da
:100e7000207c00001b7c0000157c0000107c000022
:100e80000a7c0000057c0000007c0000fa7b00006a
:100e9000f57b0000f07b0000eb7b0000e67b0000b0
:100ea000e17b0000dc7b0000d67b0000d17b0000f2
:100eb000cc7b0000c87b0000c37b0000be7b000031
:100ec000b97b0000b47b0000af7b0000aa7b000070
:100ed000a67b0000a17b00009c7b0000987b0000ab
:100ee000937b00008f7b00008a7b0000867b0000e4
:100ef000817b00007d7b0000787b0000747b00001c
:100f0000707b00006b7b0000677b0000637b000050
:100f10005e7b00005a7b0000567b0000527b000085
:100f20004e7b00004a7b0000467b0000427b0000b5
:100f30003e7b00003a7b0000367b0000327b0000e5
:100f40002e7b00002a7b0000267b0000237b000014
:100f50001f7b00001b7b0000187b0000147b00003f
:100f6000107b00000d7b0000097b0000067b000069
:100f7000027b0000ff7a0000fb7a0000f87a000094
:100f8000f57a0000f17a0000ee7a0000eb7a0000ba
:100f9000e77a0000e47a0000e17a0000de7a0000df
:100fa000db7a0000d87a0000d47a0000d17a000001
:100fb000ce7a0000cb7a0000c87a0000c57a000023
:100fc000c37a0000c07a0000bd7a0000ba7a00003f
:100fd000b77a0000b57a0000b27a0000af7a00005c
:100fe000ac7a0000aa7a0000a77a0000a57a000077
:100ff000a27a0000a07a00009d7a00009b7a00008f
:10100000987a0000967a0000937a0000917a0000a6
:101010008f7a00008c7a00008a7a0000887a0000bb
:10102000867a0000837a0000817a00007f7a0000cf
:101030007d7a00007b7a0000797a0000777a0000e0
:10104000757a0000737a0000717a00006f7a0000f0
:101050006d7a00006b7a00006a7a0000687a0000fe
:10106000667a0000647a0000637a0000617a00000a
:101070005f7a00005e7a00005c7a00005a7a000015
:10108000597a0000577a0000567a0000547a00001e
:10109000537a0000527a0000507a00004f7a000024
:1010a0004e7a00004c7a00004b7a00004a7a000029
:1010b000487a0000477a0000467a0000457a00002e
:1010c000447a0000437a0000427a0000417a00002e
:1010d000407a00003f7a00003e7a00003d7a00002e
:1010e0003c7a00003b7a00003a7a0000397a00002e
:1010f000397a0000387a0000377a0000367a00002a
:10110000367a0000357a0000347a0000347a000024
:10111000337a0000327a0000327a0000317a00001f
:10112000317a0000307a0000307a0000307a000016
:101130002f7a00002f7a00002f7a00002e7a00000c
:101140002e7a00002e7a00002d7a00002d7a000001
:101150002d7a00002d7a00002d7a00002d7a0000f3
:101160002d7a00002c7a00002c7a00002c7a0000e6
:101170002c7a00002c7a00002d7a00002d7a0000d5
:101180002d7a00002d7a00002d7a00002d7a0000c3
:101190002d7a00002e7a00002e7a00002e7a0000b0
:1011a0002e7a00002f7a00002f7a0000307a00009b
:1011b000307a0000307a0000317a0000317a000085
:1011c000327a0000327a0000337a0000337a00006d
:1011d000347a0000357a0000357a0000367a000053
:1011e000377a0000377a0000387a0000397a000038
:1011f0003a7a00003a7a00003b7a00003c7a00001c
:101200003d7a00003e7a00003f7a0000407a0000fc
:10121000417a0000427a0000437a0000447a0000dc
:10122000457a0000467a0000477a0000487a0000bc
:10123000497a00004a7a00004c7a00004d7a00009a
:101240004e7a00004f7a0000517a0000527a000076
:10125000537a0000557a0000567a0000577a000051
:10126000597a00005a7a00005c7a00005d7a00002a
:101270005f7a0000607a0000627a0000637a000002
:10128000657a0000677a0000687a00006a7a0000d8
:101290006c7a00006d7a00006f7a0000717a0000ad
:1012a000737a0000747a0000767a0000787a000081
:1012b0007a7a00007c7a00007e7a0000807a000052
:1012c000827a0000847a0000867a0000887a000022
:1012d0008a7a00008c7a00008e7a0000907a0000f2
:1012e000927a0000947a0000967a0000987a0000c2
:1012f0009b7a00009d7a00009f7a0000a17a00008e
:10130000a47a0000a67a0000a87a0000ab7a000058
:10131000ad7a0000af7a0000b27a0000b47a000023
:10132000b77a0000b97a0000bc7a0000be7a0000eb
:10133000c17a0000c37a0000c67a0000c87a0000b3
:10134000cb7a0000ce7a0000d07a0000d37a000079
:10135000d67a0000d87a0000db7a0000de7a00003e
:10136000e17a0000e37a0000e67a0000e97a000002
:10137000ec7a0000ef7a0000f27a0000f47a0000c4
:10138000f77a0000fa7a0000fd7a0000007b000086
:10139000037b0000067b0000097b00000c7b000043
:1013a0000f7b0000137b0000167b0000197b000000
:1013b0001c7b00001f7b0000227b0000267b0000be
:1013c000297b00002c7b00002f7b0000337b00007a
:1013d000367b0000397b00003d7b0000407b000035
:1013e000437b0000477b00004a7b00004e7b0000ef
:1013f000517b0000547b0000587b00005b7b0000a9
:101400005f7b0000637b0000667b00006a7b00005e
:101410006d7b0000717b0000757b0000787b000015
:101420007c7b0000807b0000837b0000877b0000ca
:101430008b7b00008e7b0000927b0000967b00007f
:101440009a7b00009e7b0000a27b0000a57b000031
:10145000a97b0000ad7b0000b17b0000b57b0000e4
:10146000b97b0000bd7b0000c17b0000c57b000094
:10147000c97b0000cd7b0000d17b0000d57b000044
:10148000d97b0000dd7b0000e17b0000e67b0000f3
:10149000ea7b0000ee7b0000f27b0000f67b0000a0
:1014a000fb7b0000ff7b0000037c0000077c00004a
:1014b0000c7c0000107c0000147c0000197c0000f3
:1014c0001d7c0000217c0000267c00002a7c00009e
:1014d0002f7c0000337c0000387c00003c7c000046
:1014e000407c0000457c0000497c00004e7c0000f0
:1014f000537c0000577c00005c7c0000607c000096
:10150000657c00006a7c00006e7c0000737c00003b
:10151000787c00007c7c0000817c0000867c0000e0
:101520008a7c00008f7c0000947c0000997c000085
:101530009e7c0000a27c0000a77c0000ac7c000028
:10154000b17c0000b67c0000bb7c0000c07c0000c9
:10155000c57c0000ca7c0000cf7c0000d47c000069
:10156000d97c0000de7c0000e37c0000e87c000009
:10157000ed7c0000f27c0000f77c0000fc7c0000a9
:10158000017d0000067d00000b7d0000107d000045
:10159000167d00001b7d0000207d0000257d0000e1
:1015a0002a7d0000307d0000357d00003a7d00007e
:1015b0003f7d0000457d00004a7d00004f7d00001a
:1015c000557d00005a7d00005f7d0000657d0000b4
:1015d0006a7d0000707d0000757d00007b7d00004d
:1015e000807d0000857d00008b7d0000907d0000e7
:1015f000967d00009b7d0000a17d0000a77d00007e
:10160000ac7d0000b27d0000b77d0000bd7d000014
:10161000c37d0000c87d0000ce7d0000d47d0000a9
:10162000d97d0000df7d0000e57d0000ea7d00003f
:10163000f07d0000f67d0000fc7d0000017e0000d2
:10164000077e00000d7e0000137e0000197e000062
:101650001e7e0000247e00002a7e0000307e0000f6
:10166000367e00003c7e0000427e0000487e000086
:101670004e7e0000537e0000597e00005f7e000019
:10168000657e00006b7e0000717e0000777e0000aa
:101690007e7e0000847e00008a7e0000907e000036
:1016a000967e00009c7e0000a27e0000a87e0000c6
:1016b000ae7e0000b47e0000bb7e0000c17e000054
:1016c000c77e0000cd7e0000d37e0000da7e0000e1
:1016d000e07e0000e67e0000ec7e0000f37e00006d
:1016e000f97e0000ff7e0000067f00000c7f0000f6
:1016f000127f0000197f00001f7f0000257f00007f
:101700002c7f0000327f0000397f00003f7f000007
:10171000457f00004c7f0000527f0000597f000091
:101720005f7f0000667f00006c7f0000737f000019
:10173000797f0000807f0000867f00008d7f0000a1
:10174000947f00009a7f0000a17f0000a77f000027
:10175000ae7f0000b57f0000bb7f0000c27f0000ad
:10176000c97f0000cf7f0000d67f0000dd7f000032
:10177000e37f0000ea7f0000f17f0000f77f0000b8
:10178000fe7f0000058000000c8000001380000038
:101790001980000020800000278000002e800000bb
:1017a000358000003b80000042800000498000003e
:1017b00050800000578000005e80000065800000bf
:1017c0006c800000738000007a8000008080000040
:1017d000878000008e800000958000009c800000c3
:1017e000a3800000aa800000b1800000b880000043
:1017f000c0800000c7800000ce800000d5800000bf
:10180000dc800000e3800000ea800000f18000003e
:10181000f8800000ff800000078100000e810000ba
:10182000158100001c810000238100002a81000036
:1018300032810000398100004081000047810000b2
:101840004e810000568100005d810000648100002f
:101850006c810000738100007a81000081810000aa
:101860008981000090810000978100009f81000025
:10187000a6810000ae810000b5810000bc8100009f
:10188000c4810000cb810000d2810000da81000019
:10189000e1810000e9810000f0810000f881000092
:1018a000ff810000078200000e8200001682000007
:1018b0001d820000258200002c820000348200007e
:1018c0003b820000438200004a82000052820000f6
:1018d000598200006182000069820000708200006d
:1018e000788200007f820000878200008f820000e3
:1018f000968200009e820000a6820000ad82000059
:10190000b5820000bd820000c4820000cc820000cd
:10191000d4820000db820000e3820000eb82000042
:10192000f3820000fa820000028300000a830000b4
:101930001283000019830000218300002983000026
:101940003183000039830000408300004883000099
:10195000508300005883000060830000688300000b
:1019600070830000778300007f830000878300007e
:101970008f830000978300009f830000a7830000ef
:10198000af830000b7830000bf830000c78300005f
:10199000cf830000d7830000df830000e7830000cf
:1019a000ef830000f7830000ff830000078400003e
:1019b0000f840000178400001f84000027840000ab
:1019c0002f840000378400003f840000478400001b
:1019d0004f840000578400005f840000678400008b
:1019e0006f840000788400008084000088840000f8
:1019f0009084000098840000a0840000a884000067
:101a0000b1840000b9840000c1840000c9840000d2
:101a1000d1840000da840000e2840000ea8400003f
:101a2000f2840000fa840000038500000b850000aa
:101a3000138500001b850000248500002c85000014
:101a4000348500003d850000458500004d8500007f
:101a5000558500005e850000668500006e850000eb
:101a6000778500007f850000878500009085000055
:101a700098850000a0850000a9850000b1850000c0
:101a8000ba850000c2850000ca850000d385000029
:101a9000db850000e4850000ec850000f485000093
:101aa000fd850000058600000e86000016860000f9
:101ab0001f86000027860000308600003886000060
:101ac0004186000049860000528600005a860000c8
:101ad000638600006b860000748600007c86000030
:101ae000858600008d860000968600009e86000098
:101af000a7860000af860000b8860000c1860000ff
:101b0000c9860000d2860000da860000e386000065
:101b1000eb860000f4860000fd86000005870000cb
:101b20000e870000178700001f870000288700002d
:101b30003087000039870000428700004a87000094
:101b4000538700005c870000648700006d870000f9
:101b5000768700007f87000087870000908700005d
:101b600099870000a1870000aa870000b3870000c2
:101b7000bc870000c4870000cd870000d687000026
:101b8000de870000e7870000f0870000f98700008b
:101b9000028800000a880000138800001c880000ea
:101ba000258800002d880000368800003f8800004e
:101bb00048880000518800005a88000062880000b0
:101bc0006b880000748800007d8800008688000013
:101bd0008f88000097880000a0880000a988000076
:101be000b2880000bb880000c4880000cd880000d7
:101bf000d6880000de880000e7880000f08800003a
:101c0000f9880000028900000b8900001489000097
:101c10001d890000268900002f89000038890000f6
:101c2000418900004a890000528900005b89000058
:101c3000648900006d890000768900007f890000ba
:101c400088890000918900009a890000a38900001a
:101c5000ac890000b5890000be890000c78900007a
:101c6000d0890000d9890000e2890000eb890000da
:101c7000f4890000fd890000068a00000f8a000038
:101c80000004000000040000000400000004000044
:101c90000004000000040000000400000004000034
:101ca0000004000000040000000400000004000024
:101cb0000004000000040000000400000004000014
:101cc0000004000000040000000400000004000004
:101cd00000040000000400000004000000040000f4
:101ce00000040000000400000004000000040000e4
:101cf00000040000000400000004000000040000d4
:101d0000ff030000ff030000ff030000ff030000cb
:101d1000ff030000ff030000ff030000ff030000bb
:101d2000ff030000ff030000ff030000ff030000ab
:101d3000ff030000ff030000ff030000ff0300009b
:101d4000ff030000ff030000ff030000ff0300008b
:101d5000ff030000ff030000ff030000ff0300007b
:101d6000fe030000fe030000fe030000fe0300006f
:101d7000fe030000fe030000fe030000fe0300005f
:101d8000fe030000fe030000fe030000fe0300004f
:101d9000fe030000fe030000fe030000fe0300003f
:101da000fd030000fd030000fd030000fd03000033
:101db000fd030000fd030000fd030000fd03000023
:101dc000fd030000fd030000fd030000fd03000013
:101dd000fd030000fc030000fc030000fc03000006
:101de000fc030000fc030000fc030000fc030000f7
:101df000fc030000fc030000fc030000fc030000e7
:101e0000fb030000fb030000fb030000fb030000da
:101e1000fb030000fb030000fb030000fb030000ca
:101e2000fb030000fb030000fa030000fa030000bc
:101e3000fa030000fa030000fa030000fa030000ae
:101e4000fa030000fa030000fa030000fa0300009e
:101e5000f9030000f9030000f9030000f903000092
:101e6000f9030000f9030000f9030000f903000082
:101e7000f8030000f8030000f8030000f803000076
:101e8000f8030000f8030000f8030000f803000066
:101e9000f7030000f7030000f7030000f70300005a
:101ea000f7030000f7030000f7030000f70300004a
:101eb000f6030000f6030000f6030000f60300003e
:101ec000f6030000f6030000f6030000f50300002f
:101ed000f5030000f5030000f5030000f503000022
:101ee000f5030000f5030000f4030000f403000014
:101ef000f4030000f4030000f4030000f403000006
:101f0000f3030000f3030000f3030000f3030000f9
:101f1000f3030000f3030000f2030000f2030000eb
:101f2000f2030000f2030000f2030000f2030000dd
:101f3000f1030000f1030000f1030000f1030000d1
:101f4000f1030000f1030000f0030000f0030000c3
:101f5000f0030000f0030000f0030000f0030000b5
:101f6000ef030000ef030000ef030000ef030000a9
:101f7000ef030000ee030000ee030000ee0300009c
:101f8000ee030000ee030000ed030000ed0300008f
:101f9000ed030000ed030000ed030000ec03000082
:101fa000ec030000ec030000ec030000ec03000075
:101fb000eb030000eb030000eb030000eb03000069
:101fc000eb030000ea030000ea030000ea0300005c
:101fd000ea030000ea030000e9030000e90300004f
:101fe000e9030000e9030000e9030000e803000042
:101ff000e8030000e8030000e8030000e703000036
:10200000e7030000e7030000e7030000e703000028
:10201000e6030000e6030000e6030000e60300001c
:10202000e5030000e5030000e5030000e503000010
:10203000e4030000e4030000e4030000e403000004
:10204000e3030000e3030000e3030000e3030000f8
:10205000e3030000e2030000e2030000e2030000eb
:10206000e2030000e1030000e1030000e1030000df
:10207000e1030000e0030000e0030000e0030000d3
:10208000df030000df030000df030000df030000c8
:10209000de030000de030000de030000de030000bc
:1020a000dd030000dd030000dd030000dd030000b0
:1020b000dc030000dc030000dc030000db030000a5
:1020c000db030000db030000db030000da03000099
:1020d000da030000da030000da030000d90300008d
:1020e000d9030000d9030000d8030000d803000082
:1020f000d8030000d8030000d7030000d703000076
:10210000d7030000d6030000d6030000d60300006a
:10211000d5030000d5030000d5030000d50300005f
:10212000d4030000d4030000d4030000d303000054
:10213000d3030000d3030000d2030000d203000049
:10214000d2030000d2030000d1030000d10300003d
:10215000d1030000d0030000d0030000d003000032
:10216000cf030000cf030000cf030000ce03000028
:10217000ce030000ce030000cd030000cd0300001d
:10218000cd030000cc030000cc030000cc03000012
:10219000cb030000cb030000cb030000ca03000008
:1021a000ca030000ca030000c9030000c9030000fd
:1021b000c9030000c8030000c8030000c8030000f2
:1021c000c7030000c7030000c7030000c6030000e8
:1021d000c6030000c6030000c5030000c5030000dd
:1021e000c4030000c4030000c4030000c3030000d4
:1021f000c3030000c3030000c2030000c2030000c9
:10220000c2030000c1030000c1030000c0030000be
:10221000c0030000c0030000bf030000bf030000b4
:10222000bf030000be030000be030000be030000a9
:10223000bd030000bd030000bc030000bc030000a0
:10224000bc030000bb030000bb030000ba03000096
:10225000ba030000ba030000b9030000b90300008c
:10226000b8030000b8030000b8030000b703000083
:10227000b7030000b6030000b6030000b603000079
:10228000b5030000b5030000b4030000b403000070
:10229000b4030000b3030000b3030000b203000066
:1022a000b2030000b2030000b1030000b10300005c
:1022b000b0030000b0030000af030000af03000054
:1022c000af030000ae030000ae030000ad0300004a
:1022d000ad030000ad030000ac030000ac03000040
:1022e000ab030000ab030000aa030000aa03000038
:1022f000a9030000a9030000a9030000a80300002f
:10230000a8030000a7030000a7030000a603000025
:10231000a6030000a5030000a5030000a50300001c
:10232000a4030000a4030000a3030000a303000013
:10233000a2030000a2030000a1030000a10300000b
:10234000a0030000a00300009f0300009f03000003
:102350009f0300009e0300009e0300009d030000f9
:102360009d0300009c0300009c0300009b030000f1
:102370009b0300009a0300009a03000099030000e9
:1023800099030000980300009803000097030000e1
:1023900097030000960300009603000095030000d9
:1023a00095030000940300009403000093030000d1
:1023b00093030000920300009203000091030000c9
:1023c0009103000090030000900300008f030000c1
:1023d0008f0300008e0300008e0300008d030000b9
:1023e0008d0300008c0300008c0300008b030000b1
:1023f0008b0300008a0300008a03000089030000a9
:1024000089030000880300008703000087030000a1
:10241000860300008603000085030000850300009a
:102420008403000084030000830300008303000092
:10243000820300008203000081030000800300008b
:10244000800300007f0300007f0300007e03000084
:102450007e0300007d0300007d0300007c0300007c
:102460007b0300007b0300007a0300007a03000076
:10247000790300007903000078030000770300006f
:102480007703000076030000760300007503000068
:102490007403000074030000730300007303000062
:1024a000720300007203000071030000700300005b
:1024b000700300006f0300006f0300006e03000054
:1024c0006d0300006d0300006c0300006c0300004e
:1024d0006b0300006a0300006a0300006903000048
:1024e0006903000068030000670300006703000041
:1024f000660300006503000065030000640300003c
:102500006403000063030000620300006203000034
:102510006103000060030000600300005f0300002f
:102520005e0300005e0300005d0300005d03000029
:102530005c0300005b0300005b0300005a03000023
:10254000590300005903000058030000570300001e
:102550005703000056030000550300005503000018
:102560005403000053030000530300005203000013
:102570005103000051030000500300004f0300000e
:102580004f0300004e0300004d0300004d03000008
:102590004c0300004b0300004b0300004a03000003
:1025a00049030000480300004803000047030000ff
:1025b00046030000460300004503000044030000fa
:1025c00044030000430300004203000041030000f5
:1025d00041030000400300003f0300003f030000f0
:1025e0003e0300003d0300003c0300003c030000ec
:1025f0003b0300003a0300003903000039030000e8
:1026000038030000370300003603000036030000e3
:1026100035030000340300003303000033030000df
:1026200032030000310300003003000030030000db
:102630002f0300002e0300002d0300002d030000d7
:102640002c0300002b0300002a0300002a030000d3
:1026500029030000280300002703000026030000d0
:1026600026030000250300002403000023030000cc
:1026700023030000220300002103000020030000c8
:102680001f0300001f0300001e0300001d030000c5
:102690001c0300001b0300001b0300001a030000c2
:1026a00019030000180300001703000016030000c0
:1026b00016030000150300001403000013030000bc
:1026c00012030000110300001103000010030000ba
:1026d0000f0300000e0300000d0300000c030000b8
:1026e0000c0300000b0300000a03000009030000b4
:1026f00008030000070300000603000006030000b3
:1027000005030000040300000303000002030000af
:102710000103000000030000ff020000ff020000b0
:10272000fe020000fd020000fc020000fb020000af
:10273000fa020000f9020000f8020000f7020000af
:10274000f6020000f6020000f5020000f4020000ac
:10275000f3020000f2020000f1020000f0020000ab
:10276000ef020000ee020000ed020000ec020000ab
:10277000eb020000ea020000ea020000e9020000a9
:10278000e8020000e7020000e6020000e5020000a7
:10279000e4020000e3020000e2020000e1020000a7
:1027a000e0020000df020000de020000dd020000a7
:1027b000dc020000db020000da020000d9020000a7
:1027c000d8020000d7020000d6020000d5020000a7
:1027d000d4020000d3020000d2020000d1020000a7
:1027e000d0020000cf020000ce020000cd020000a7
:1027f000cc020000cb020000ca020000c9020000a7
:10280000c8020000c7020000c6020000c5020000a6
:10281000c4020000c3020000c2020000c1020000a6
:10282000c0020000bf020000bd020000bc020000a8
:10283000bb020000ba020000b9020000b8020000aa
:10284000b7020000b6020000b5020000b4020000aa
:10285000b3020000b2020000b0020000af020000ac
:10286000ae020000ad020000ac020000ab020000ae
:10287000aa020000a9020000a8020000a6020000af
:10288000a5020000a4020000a3020000a2020000b2
:10289000a1020000a00200009e0200009d020000b4
:1028a0009c0200009b0200009a02000099020000b6
:1028b00097020000960200009502000094020000ba
:1028c0009302000092020000900200008f020000bc
:1028d0008e0200008d0200008c0200008a020000bf
:1028e00089020000880200008702000085020000c3
:1028f00084020000830200008202000080020000c7
:102900007f0200007e0200007d0200007b020000ca
:102910007a020000790200007802000076020000ce
:1029200075020000740200007202000071020000d3
:10293000700200006f0200006d0200006c020000d7
:102940006b020000690200006802000067020000dc
:1029500065020000640200006302000061020000e2
:10296000600200005f0200005d0200005c020000e7
:102970005a020000590200005802000056020000ee
:1029800055020000540200005202000051020000f3
:102990004f0200004e0200004c0200004b020000fb
:1029a0004a02000048020000470200004502000001
:1029b0004402000042020000410200003f02000009
:1029c0003e0200003d0200003b0200003a0200000f
:1029d0003802000037020000350200003402000017
:1029e00032020000300200002f0200002d02000021
:1029f0002c0200002a020000290200002702000029
:102a00002602000024020000220200002102000031
:102a10001f0200001e0200001c0200001a0200003b
:102a20001902000017020000160200001402000044
:102a300012020000110200000f0200000d0200004f
:102a40000c0200000a020000080200000702000059
:102a50000502000003020000010200000002000065
:102a6000fe010000fc010000fa010000f901000075
:102a7000f7010000f5010000f3010000f201000081
:102a8000f0010000ee010000ec010000ea0100008e
:102a9000e8010000e7010000e5010000e30100009b
:102aa000e1010000df010000dd010000db010000aa
:102ab000d9010000d7010000d6010000d4010000b8
:102ac000d2010000d0010000ce010000cc010000c6
:102ad000ca010000c8010000c6010000c4010000d6
:102ae000c2010000c0010000be010000bb010000e7
:102af000b9010000b7010000b5010000b3010000fa
:102b0000b1010000af010000ad010000aa0100000a
:102b1000a8010000a6010000a4010000a20100001d
:102b20009f0100009d0100009b0100009801000032
:102b30009601000094010000920100008f01000046
:102b40008d0100008a01000088010000860100005c
:102b500083010000810100007e0100007c01000073
:102b6000790100007701000074010000720100008b
:102b70006f0100006c0100006a01000067010000a5
:102b800064010000620100005f0100005c010000c0
:102b900059010000570100005401000051010000dc
:102ba0004e0100004b0100004801000045010000fb
:102bb000420100003f0100003c010000390100001b
:102bc00036010000330100002f0100002c0100003d
:102bd0002901000026010000220100001f01000061
:102be0001b01000018010000140100001101000089
:102bf0000d010000090100000601000002010000b3
:102c0000fe000000fa000000f6000000f2000000e4
:102c1000ee000000ea000000e5000000e100000016
:102c2000dc000000d8000000d3000000ce0000004f
:102c3000c9000000c4000000bf000000ba0000008e
:102c4000b4000000af000000a9000000a3000000d5
:102c50009c000000960000008f000000870000002c
:102c600080000000780000006f0000006500000098
:102c70005a0000004e000000400000002d0000003f
:102c8000ff7f0000ff7f0000ff7f0000575500001e
:102c90000240000036330000ae2a000096240000f7
:102ca00004200000761c00009f1900004b17000054
:102cb0005b150000b813000050120000191100004d
:102cc00008100000180f0000420e0000830d0000e5
:102cd000d70c00003b0c0000ae0b00002d0b0000d9
:102ce000b70a00004a0a0000e6090000890900004e
:102cf00033090000e20800009808000052080000b4
:102d000010080000d20700009907000062070000c9
:102d10002e070000fe060000d0060000a4060000fa
:102d20007a060000530600002d0600000a06000087
:102d3000e7050000c7050000a80500008a0500009f
:102d40006d05000052050000380500001f05000059
:102d500006050000ef040000d9040000c3040000d1
:102d6000ae0400009a040000870400007404000010
:102d70006204000051040000400400003004000020
:102d8000200400001104000002040000f40300000d
:102d9000e6030000d8030000cb030000bf030000df
:102da000b2030000a60300009b0300008f03000095
:102db000840300007a0300006f0300006503000035
:102dc0005b03000052030000480300003f030000c3
:102dd000360300002e030000250300001d03000041
:102de000150300000d03000005030000fe020000b3
:102df000f6020000ef020000e8020000e10200001d
:102e0000db020000d4020000ce020000c702000076
:102e1000c1020000bb020000b6020000b0020000c8
:102e2000aa020000a50200009f0200009a02000012
:102e300095020000900200008b0200008602000054
:102e4000810200007c020000780200007302000092
:102e50006f0200006b0200006602000062020000c8
:102e60005e0200005a0200005602000052020000fa
:102e70004f0200004b020000470200004402000025
:102e8000400200003d02000039020000360200004e
:102e9000320200002f0200002c0200002902000074
:102ea0002602000023020000200200001d02000094
:102eb0001a020000170200001502000012020000b2
:102ec0000f0200000c0200000a02000007020000ce
:102ed000050200000202000000020000fe010000e6
:102ee000fb010000f9010000f7010000f4010000ff
:102ef000f2010000f0010000ee010000ec01000012
:102f0000ea010000e8010000e6010000e401000021
:102f1000e2010000e0010000de010000dc01000031
:102f2000da010000d8010000d7010000d50100003f
:102f3000d3010000d1010000d0010000ce0100004b
:102f4000cc010000cb010000c9010000c801000055
:102f5000c6010000c5010000c3010000c20100005d
:102f6000c0010000bf010000bd010000bc01000065
:102f7000bb010000b9010000b8010000b70100006a
:102f8000b5010000b4010000b3010000b20100006f
:102f9000b0010000af010000ae010000ad01000073
:102fa000ac010000ab010000a9010000a801000075
:102fb000a7010000a6010000a5010000a401000077
:102fc000a3010000a2010000a1010000a001000077
:102fd0009f0100009e0100009d0100009c01000077
:102fe0009b0100009b0100009a0100009901000074
:102ff0009801000097010000960100009501000073
:10300000950100009401000093010000920100006e
:103010009101000091010000900100008f0100006b
:103020008e0100008e0100008d0100008c01000067
:103030008c0100008b0100008a0100008a01000061
:10304000890100008801000088010000870100005c
:103050008701000086010000850100008501000055
:10306000840100008401000083010000830100004e
:103070008201000082010000810100008101000046
:1030800080010000800100007f0100007f0100003e
:103090007e0100007e0100007d0100007d01000036
:1030a0007c0100007c0100007b0100007b0100002e
:1030b0007b0100007a0100007a0100007901000024
:1030c000790100007901000078010000780100001a
:1030d0007701000077010000770100007601000011
:1030e0007601000076010000750100007501000006
:1030f00075010000740100007401000074010000fb
:1031000074010000730100007301000073010000ee
:1031100072010000720100007201000072010000e3
:1031200071010000710100007101000071010000d7
:1031300070010000700100007001000070010000cb
:10314000700100006f0100006f0100006f010000be
:103150006f0100006f0100006e0100006e010000b1
:103160006e0100006e0100006e0100006e010000a3
:103170006d0100006d0100006d0100006d01000097
:103180006d0100006d0100006d0100006c01000088
:103190006c0100006c0100006c0100006c0100007b
:1031a0006c0100006c0100006c0100006b0100006c
:1031b0006b0100006b0100006b0100006b0100005f
:1031c0006b0100006b0100006b0100006b0100004f
:1031d0006b0100006b0100006b0100006b0100003f
:1031e0006b0100006a0100006a0100006a01000032
:1031f0006a0100006a0100006a0100006a01000023
:103200006a0100006a0100006a0100006a01000012
:103210006a0100006a0100006a0100006a01000002
:103220006a0100006a0100006a0100006a010000f2
:103230006a0100006a0100006a0100006a010000e2
:103240006a0100006a0100006a0100006a010000d2
:103250006a0100006a0100006a0100006a010000c2
:103260006a0100006a0100006a0100006a010000b2
:103270006a0100006b0100006b0100006b0100009f
:103280006b0100006b0100006b0100006b0100008e
:103290006b0100006b0100006b0100006b0100007e
:1032a0006b0100006b0100006b0100006b0100006e
:1032b0006b0100006c0100006c0100006c0100005b
:1032c0006c0100006c0100006c0100006c0100004a
:1032d0006c0100006c0100006c0100006d01000039
:1032e0006d0100006d0100006d0100006d01000026
:1032f0006d0100006d0100006d0100006d01000016
:103300006e0100006e0100006e0100006e01000001
:103310006e0100006e0100006e0100006e010000f1
:103320006f0100006f0100006f0100006f010000dd
:103330006f0100006f0100006f01000070010000cc
:1033400070010000700100007001000070010000b9
:1033500070010000700100007101000071010000a7
:103360007101000071010000710100007101000095
:103370007201000072010000720100007201000081
:10338000720100007201000073010000730100006f
:10339000730100007301000073010000740100005c
:1033a0007401000074010000740100007401000049
:1033b0007401000075010000750100007501000036
:1033c0007501000075010000760100007601000023
:1033d0007601000076010000760100007701000010
:1033e00077010000770100007701000077010000fd
:1033f00078010000780100007801000078010000e9
:1034000079010000790100007901000079010000d4
:10341000790100007a0100007a0100007a010000c1
:103420007a0100007b0100007b0100007b010000ad
:103430007b0100007b0100007c0100007c0100009a
:103440007c0100007c0100007d0100007d01000086
:103450007d0100007d0100007e0100007e01000072
:103460007e0100007e0100007f0100007f0100005e
:103470007f0100007f01000080010000800100004a
:103480008001000000000000920100002403000001
:10349000b604000048060000d90700006a090000d1
:1034a000fb0a00008c0c00001c0e0000ab0f00009b
:1034b0003a110000c812000055140000e215000087
:1034c0006e170000f9180000821a00000b1c0000a3
:1034d000931d00001a1f00009f20000023220000ff
:1034e000a623000028250000a826000026280000aa
:1034f000a32900001f2b0000992c0000112e0000b2
:10350000872f0000fb3000006e320000df33000028
:103510004d350000ba360000243800008c39000018
:10352000f23a0000563c0000b83d0000173f000092
:1035300073400000ce410000254300007a440000a3
:10354000cd4500001c47000069480000b449000058
:10355000fb4a00003f4c0000814d0000bf4e0000c0
:10356000fb4f000033510000685200009b530000e5
:10357000c9540000f55500001d57000042580000d6
:1035800064590000825a00009c5b0000b35c00009c
:10359000c75d0000d75e0000e35f0000eb60000045
:1035a000f0610000f1620000ee630000e8640000da
:1035b000dd650000cf660000bc670000a668000063
:1035c0008b6900006d6a00004a6b0000236c0000ec
:1035d000f86c0000c96d0000966e00005e6f000080
:1035e00022700000e27000009d7100005472000023
:1035f00007730000b57300005f74000004750000dd
:10360000a575000041760000d87600006b770000b9
:10361000fa770000847800000979000089790000b9
:10362000057a00007c7a0000ee7a00005c7b0000e6
:10363000c57b0000297c0000887c0000e37c000042
:10364000397d0000897d0000d57d00001d7e0000d1
:103650005f7e00009c7e0000d57e0000097f000098
:10366000377f0000617f0000867f0000a67f00009a
:10367000c17f0000d87f0000e97f0000f57f0000d7
:10368000fd7f0000ff7f0000fd7f0000f57f000050
:10369000e97f0000d87f0000c17f0000a67f000006
:1036a000867f0000617f0000377f0000097f0000f7
:1036b000d57e00009c7e00005f7e00001d7e000025
:1036c000d57d0000897d0000397d0000e37c00008d
:1036d000887c0000297c0000c57b00005c7b00002a
:1036e000ee7a00007c7a0000057a000089790000fb
:1036f0000979000084780000fa7700006b770000f9
:10370000d876000041760000a57500000475000021
:103710005f740000b573000007730000547200006e
:103720009d710000e2700000227000005e6f0000da
:10373000966e0000c96d0000f86c0000236c00005c
:103740004a6b00006d6a00008b690000a6680000eb
:10375000bc670000cf660000dd650000e864000083
:10376000ee630000f1620000f0610000eb60000019
:10377000e35f0000d75e0000c75d0000b35c00009f
:103780009c5b0000825a000064590000425800000f
:103790001d570000f5550000c95400009b53000060
:1037a0006852000033510000fb4f0000bf4e000084
:1037b000814d00003f4c0000fb4a0000b44900006e
:1037c000694800001c470000cd4500007a44000015
:1037d00025430000ce41000073400000173f000069
:1037e000b83d0000563c0000f23a00008c39000061
:1037f00024380000ba3600004d350000df330000e9
:103800006e320000fb300000872f0000112e0000f8
:10381000992c00001f2b0000a3290000262800007f
:10382000a826000028250000a6230000232200006f
:103830009f2000001a1f0000931d00000b1c0000b9
:10384000821a0000f91800006e170000e21500004f
:1038500055140000c81200003a110000ab0f000020
:103860001c0e00008c0c0000fb0a00006a0900001e
:10387000d907000048060000b60400002403000039
:1038800092010000000000006efe0000dcfc000061
:103890004afb0000b8f9000027f8000096f6000087
:1038a00005f5000074f30000e4f1000055f000009d
:1038b000c6ee000038ed0000abeb00001eea000091
:1038c00092e8000007e700007ee50000f5e3000055
:1038d0006de20000e6e0000061df0000dddd0000d9
:1038e0005adc0000d8da000058d90000dad700000e
:1038f0005dd60000e1d4000067d30000efd10000e6
:1039000079d0000005cf000092cd000021cc00004e
:10391000b3ca000046c90000dcc7000074c600003e
:103920000ec50000aac3000048c20000e9c00000a4
:103930008dbf000032be0000dbbc000086bb000073
:1039400033ba0000e4b8000097b700004cb600009e
:1039500005b50000c1b300007fb2000041b1000016
:1039600005b00000cdae000098ad000065ac0000d1
:1039700037ab00000baa0000e3a80000bea70000c0
:103980009ca600007ea5000064a400004da30000da
:1039900039a2000029a100001da00000159f000011
:1039a000109e00000f9d0000129c0000189b00005c
:1039b000239a000031990000449800005a970000b3
:1039c0007596000093950000b6940000dd9300000a
:1039d00008930000379200006a910000a290000056
:1039e000de8f00001e8f0000638e0000ac8d000093
:1039f000f98c00004b8c0000a18b0000fc8a0000b9
:103a00005b8a0000bf8900002889000095880000bb
:103a1000068800007c870000f7860000778600009b
:103a2000fb8500008485000012850000a48400004e
:103a30003b840000d7830000788300001d830000d2
:103a4000c7820000778200002b820000e381000023
:103a5000a1810000648100002b810000f78000003c
:103a6000c98000009f8000007a8000005a8000001a
:103a70003f80000028800000178000000b800000bd
:103a80000380000001800000038000000b80000024
:103a900017800000288000003f8000005a8000004e
:103aa0007a8000009f800000c9800000f78000003d
:103ab0002b81000064810000a1810000e3810000ef
:103ac0002b82000077820000c78200001d83000067
:103ad00078830000d78300003b840000a4840000aa
:103ae0001285000084850000fb85000077860000b9
:103af000f78600007c87000006880000958800009b
:103b000028890000bf8900005b8a0000fc8a000051
:103b1000a18b00004b8c0000f98c0000ac8d0000e4
:103b2000638e00001e8f0000de8f0000a290000058
:103b30006a9100003792000008930000dd930000b6
:103b4000b694000093950000759600005a97000007
:103b50004498000031990000239a0000189b00004f
:103b6000129c00000f9d0000109e0000159f000099
:103b70001da0000029a1000039a200004da30000f3
:103b800064a400007ea500009ca60000bea7000063
:103b9000e3a800000baa000037ab000065ac0000f2
:103ba00098ad0000cdae000005b0000041b10000ae
:103bb0007fb20000c1b3000005b500004cb60000a4
:103bc00097b70000e4b8000033ba000086bb0000dd
:103bd000dbbc000032be00008dbf0000e9c0000069
:103be00048c20000aac300000ec5000074c6000051
:103bf000dcc7000046c90000b3ca000021cc0000a9
:103c000092cd000005cf000079d00000efd1000078
:103c100067d30000e1d400005dd60000dad70000d1
:103c200058d90000d8da00005adc0000dddd0000c1
:103c300061df0000e6e000006de20000f5e3000057
:103c40007ee5000007e7000092e800001eea0000a1
:103c5000abeb000038ed0000c6ee000055f00000b0
:103c6000e4f1000074f3000005f5000096f6000092
:103c700027f80000b8f900004afb0000dcfc000057
:103c80006efe0000000000000000000000000000c8
:103c90000000000000000000000000000000000024
:103ca000000000004e6f000020760000616c0000f4
:103cb00075650000732000007061000073730000e0
:103cc0006564000020740000686500002074000036
:103cd00065730000742e00000d0a000000540000ff
:103ce0007279000020740000686500002066000002
:103cf0006f6c00006c6f0000776900006e67000059
:103d00003a0d00000a000000706900002d720000ea
:103d100061740000696f000020360000330d000060
:103d20000a000000727500006e2d0000706900002e
:103d30002d74000065730000740d00000a0000007f
:103d4000706900002d72000061740000696f00004e
:103d500020360000340d00000a00000070690000e9
:103d60002d72000061740000696f000020360000b1
:103d7000350d00000a0000004a7500007374000051
:103d8000206b00006565000070200000676f000078
:103d9000696e0000672e00002020000049660000c8
:103da000206e00006f740000686900006e670000fc
:103db0002070000061730000736500007320000034
:103dc00074680000652000007465000073740000d2
:103dd0002061000066740000657200002079000018
:103de0006f7500002068000061760000652000000b
:103df00074720000696500006420000070690000b2
:103e00002d72000061740000696f000020610000e5
:103e10006c6c0000207400006865000020770000d2
:103e200061790000207400006f2c000020730000f6
:103e3000617900002c20000032300000302c00009e
:103e40000d0a000000690000742000006d61000090
:103e500079200000626500002074000068610000a5
:103e600074200000746800006520000050490000c4
:103e70002074000065730000742000006973000066
:103e8000207400006f6f0000207300007472000047
:103e9000696e0000676500006e7400002066000017
:103ea0006f720000207900006f7500007220000022
:103eb0006d6f0000746f0000722e00002020000063
:103ec000456d0000616900006c2000006d65000018
:103ed000206100007420000070610000756c00001b
:103ee000616e00006473000061620000726900008e
:103ef0006e61000073650000767300007475000049
:103f000066660000406700006d610000696c00009b
:103f10002e6300006f6d00002e0d00000a000000ef
:103f20005468000065200000746500007374000090
:103f30002077000061730000206100002073000002
:103f40007563000063650000737300002e2000009d
:103f50002049000066200000796f000075200000f5
:103f60006172000065200000737400006179000038
:103f7000696e000067200000776900007468000027
:103f80002074000068690000732000006275000062
:103f900073200000766f00006c7400006167000001
:103fa000652c00002074000079700000652000007e
:103fb0002773000061760000652700003a0d0000bd
:103fc0000a00000049660000207900006f750000bb
:103fd00020630000686100006e670000652000003b
:103fe000796f000075720000206200007573000098
:103ff000207600006f6c00007461000067650000af
:104000002c200000796f000075200000736800000c
:104010006f7500006c640000207200006572000083
:10402000756e0000207400006865000020630000c9
:104030006f6d00006d6100006e64000020270000bd
:10404000727500006e2d0000706900002d74000074
:1040500065730000742700002e0d00000a000000a8
:10406000596f000075720000207200006f7400002c
:104070006f7200002074000065730000742000005f
:1040800066610000696c0000656400002e0d000090
:104090000a000000596f00007572000020720000d5
:1040a0006f7400006f7200002074000065730000e0
:1040b0007420000077610000732000006120000080
:1040c00073750000636300006573000073210000d6
:1040d00020200000547900007065000020270000b7
:1040e000636f00006e660000696700002720000013
:1040f000746f0000207300006565000020740000ec
:1041000068650000206e00006577000020720000e6
:104110006f7400006f72000020740000696d000071
:1041200065200000636f00006e7300007461000082
:104130006e7400002e0d00000a000000546f000095
:1041400020730000617600006520000074680000a4
:10415000652000006e650000776c0000792000008b
:10416000666f0000756e000064200000726f000032
:10417000746f000072200000746900006d6500001b
:10418000206300006f6e000073740000616e000019
:10419000742c00002074000079700000652000007d
:1041a0002773000061760000652700002e0d0000d7
:1041b0000a000000596f00007572000020610000c5
:1041c0006e6700006c650000206f000066660000ee
:1041d00073650000742000007465000073740000b3
:1041e00020660000616900006c650000642e00001c
:1041f0000d0a0000005900006f75000072200000d9
:10420000616e0000676c0000652000006f660000b2
:104210006673000065740000207400006573000080
:10422000742000007761000073200000612000000e
:104230007375000063630000657300007321000064
:104240002020000054790000706500002027000045
:10425000636f00006e6600006967000027200000a1
:10426000746f00002073000065650000207400007a
:1042700068650000206e0000657700002061000086
:104280006e6700006c650000206f0000666600002d
:1042900073650000742e00000d0a00000054000039
:1042a0006f2000007361000076650000207400003c
:1042b00068650000206e0000657700006c790000e2
:1042c000206600006f7500006e6400002061000031
:1042d0006e6700006c650000206f000066660000dd
:1042e00073650000742c00002074000079700000d9
:1042f000652000002773000061760000652700003c
:104300002e0d00000a0000004d6f0000746f0000c9
:1043100072200000536100006c690000656e0000af
:1043200063790000205400006573000074200000d1
:10433000546900006d650000202800006c6f0000cb
:1043400077650000722000006973000020620000a1
:104350006574000074650000722900003a200000b6
:104360000078000078780000787800000d0a0000de
:1043700000540000687200006f740000746c00004c
:10438000652000006f750000742000006f6600005b
:1043900020720000616e00006765000021200000af
:1043a000497300002069000074200000756e000051
:1043b000706c00007567000067650000643f0000d6
:1043c0000d0a0000004400006573000061740000e5
:1043d0007572000061740000696f00006e200000bb
:1043e000446500007465000063740000696f00009c
:1043f0006e20000046610000756c00007421000012
:104400002020000054680000617400002773000041
:104410002061000063740000756100006c6c000096
:10442000792000007072000065740000747900004b
:1044300020620000616400002e0d00000a000000f0
:1044400055410000525400002066000061750000d4
:104450006c7400002e200000204900007320000032
:104460007468000065200000736500007269000038
:10447000616c000020630000616200006c65000058
:10448000207500006e7000006c750000676700000a
:10449000656400003f0d00000a000000556e00003a
:1044a00064650000727600006f6c000074610000ab
:1044b0006765000020460000617500006c74000014
:1044c0002e2000002045000069740000686500008f
:1044d00072200000796f0000757200002035000026
:1044e000762000006f720000203200003476000059
:1044f0002073000075700000706c000079200000cf
:10450000647200006f70000070650000642000009d
:10451000746f00006f2000006c6f0000772e0000a9
:104520000d0a0000004f0000766500007263000075
:1045300075720000726500006e7400002066000055
:10454000617500006c7400002e20000020540000f3
:104550006865000020680000617200006477000058
:1045600061720000652000006f7600006572000037
:104570006375000072720000656e00007420000018
:10458000707200006f7400006563000074690000c1
:104590006f6e0000206a0000757300007420000038
:1045a000636100006d650000206f00006e20000058
:1045b000616e0000642000007361000076650000f9
:1045c0006420000074680000652000006461000041
:1045d000792e00000d0a00000043000075720000f3
:1045e000726500006e74000020730000656e0000ac
:1045f000736f00007220000066610000756c00009f
:10460000742e00002020000049730000206100008b
:104610002063000075720000726500006e74000077
:1046200020730000656e0000736f000072200000b0
:10463000756e0000706c0000756700006765000013
:10464000643f00000d0a0000004800006967000098
:104650006820000070650000646100006c200000ac
:104660006c6f0000636b00006f7500007420000029
:1046700066610000756c0000742e000020200000b0
:10468000496700006e6f0000726500002074000032
:104690006869000073200000666f0000722000004f
:1046a0006e6f0000772e000020200000497400008b
:1046b00027730000206e00006f740000207200005d
:1046c000656100006c6c0000792000006120000032
:1046d00066610000756c0000742e00002020000050
:1046e00068610000686100002e0d00000a000000f3
:1046f000526f0000746f000072200000666c0000b2
:1047000075780000206100006e6700006c65000095
:1047100020660000617500006c7400002e2000000f
:10472000207300006f6d0000657400006869000070
:104730006e67000020770000656900007264000069
:104740002068000061700000706500006e65000068
:104750006420000077690000746800002074000085
:1047600068650000207200006f7400006f72000026
:10477000206600006c75000078200000616e00006b
:10478000676c0000652e00000d0a00000054000058
:10479000686500007265000020770000617300000a
:1047a000207300006f6d000065200000686100004c
:1047b00072640000776100007265000020630000f1
:1047c00061750000736500006420000066610000f0
:1047d000756c0000742c0000206e00006f740000e7
:1047e000206f000072690000676900006e610000c0
:1047f000746900006e670000206f00006e200000ea
:1048000074680000652000006d690000637200009c
:104810006f6300006f6e0000747200006f6c000028
:104820006c65000072200000286e00006f740000ac
:1048300020730000657400002062000079200000f1
:104840006d650000210d00000a00000050200000ee
:10485000492000004f76000065720000666c000081
:104860006f77000020660000617500006c74000026
:104870002e20000020490000742700007320000053
:1048800072650000616c00006c790000206e000011
:104890006f7400002074000072610000636b000000
:1048a000696e000067200000496400005265000046
:1048b00066200000616e0000642000004971000065
:1048c0005265000066200000776500006c6c0000f7
:1048d0002061000074200000616c00006c2e00005c
:1048e0000d0a000000500000444300002046000074
:1048f000617500006c7400002e200000204900004b
:1049000020740000686900006e6b00002049000000
:10491000206700006f7400002072000069640000ce
:10492000206f0000662000007468000069730000ba
:10493000206f00006e6500002e0d00000a000000d0
:104940004d6f0000746f0000722000004f76000071
:10495000657200007370000065650000642000004f
:1049600046610000756c0000742e000020200000dd
:1049700054680000652000006d6f0000746f000037
:1049800072200000525000004d200000676f0000b0
:1049900074200000746f00006f2000006869000040
:1049a00067680000210d00000a0000004d61000052
:1049b000676e000065740000697a0000696e00008f
:1049c000672000004375000072720000656e0000f1
:1049d0007420000066610000756c0000742e0000f9
:1049e0002020000049740000206700006f74000060
:1049f00020630000726100007a79000020680000e6
:104a00006967000068200000666f000072200000e7
:104a1000736f00006d65000020720000656100008a
:104a2000736f00006e2e00000d0a000000450000ac
:104a30006e6300006f640000657200002063000078
:104a4000616200006c650000207500006e7000005f
:104a50006c75000067670000656400002e20000090
:104a600020490000276d0000206e00006f740000d8
:104a700020750000736900006e670000207400005c
:104a800068690000732000006f6e00006520000060
:104a9000617400002074000068650000206d000053
:104aa0006f6d0000656e0000742e00000d0a00009e
:104ab000000d00000a49000020620000657400003b
:104ac000207900006f750000206a000075730000f7
:104ad00074200000747900007065000064200000fc
:104ae000276f000066660000272000002068000095
:104af00061680000612e00002e0d00000a00000019
:104b00007361000076650000006d00006f740000a6
:104b10006f7200002d7400007970000065000000c5
:104b20006b700000006b000069000000616e000007
:104b3000676c0000652d00006f6600006673000062
:104b40006574000000730000616c0000696500007e
:104b50006e6300007900000063750000727200004f
:104b6000656e0000742d0000736500006e73000018
:104b70006f7200002d6100006d700000732d000049
:104b800070650000722d0000766f00006c740000ec
:104b9000006d0000617800002d7200006567000064
:104ba000656e00002d7000006f73000069740000d6
:104bb000696f00006e0000006d6900006e2d00003e
:104bc00072650000676500006e2d0000706f0000c8
:104bd00073690000746900006f6e0000006d0000d2
:104be000696e00002d740000687200006f74000090
:104bf000746c0000652d0000706f00007369000088
:104c0000746900006f6e0000006d000061780000a4
:104c10002d740000687200006f740000746c000056
:104c2000652d0000706f000073690000746900005a
:104c30006f6e000000660000617500006c7400007b
:104c40002d740000687200006f740000746c000026
:104c5000652d0000706f000073690000746900002a
:104c60006f6e0000006d0000617800002d62000092
:104c70006174000074650000727900002d6100000d
:104c80006d700000730000006d610000782d000061
:104c9000626100007474000065720000792d0000ec
:104ca000616d0000707300002d72000065670000e8
:104cb000656e0000006d0000617800002d6d000041
:104cc0006f7400006f7200002d6100006d700000b5
:104cd000730000006d610000782d00006d6f000012
:104ce000746f0000722d0000616d00007073000091
:104cf0002d72000065670000656e00000070000006
:104d00007265000063680000617200006765000062
:104d10002d740000696d000065000000726f0000d6
:104d2000746f0000722d0000746900006d65000052
:104d30002d6300006f6e000073740000616e000050
:104d400074000000706f00006c6500002d700000a2
:104d50006169000072730000006d0000617800005e
:104d60002d720000706d0000007400006872000079
:104d70006f740000746c0000652d000074790000f1
:104d800070650000006500006e6300006f64000045
:104d9000657200002d740000696300006b730000f1
:104da00000700000692d000072610000746900004d
:104db0006f000000727500006e2d00007069000029
:104dc0002d7400006573000074000000727500000f
:104dd0006e2d0000726f0000746f0000722d0000d5
:104de0007465000073740000005900006f750000c6
:104df000722000006d6f0000746f000072200000d0
:104e000074790000706500002069000073200000c4
:104e10006375000072720000656e0000746c000023
:104e2000792000007365000074200000746f00009a
:104e300020700000657200006d6100006e6500006a
:104e40006e740000206d0000616700006e65000058
:104e5000742e0000202000005468000069730000d8
:104e60002074000065730000742000006973000066
:104e7000206600006f720000206100006e200000bc
:104e800041430000206900006e640000756300006b
:104e9000746900006f6e0000206d00006f740000e8
:104ea0006f720000210d00000a000000546f000026
:104eb00020630000686100006e670000652000004c
:104ec000796f000075720000206d00006f740000a3
:104ed0006f720000207400006f200000414300004a
:104ee000206900006e6400007563000074690000b2
:104ef0006f6e00002c200000746800006520000028
:104f0000636f00006d6d0000616e000064200000a2
:104f100069730000202700006d6f0000746f0000af
:104f2000722d0000747900007065000020310000cf
:104f3000270d00000a000000727500006e2d0000b1
:104f4000616e0000676c0000652d00006f66000058
:104f500066730000657400002d7400006573000026
:104f600074000000596f000075720000206d000091
:104f70006f7400006f7200002074000079700000f0
:104f800065200000697300002041000043200000fc
:104f9000696e00006475000063740000696f0000b2
:104fa0006e2e00002020000054680000697300008d
:104fb0002074000065730000742000006973000015
:104fc000206600006f720000206100002070000069
:104fd000657200006d6100006e6500006e74000077
:104fe000206d000061670000657400002041000032
:104ff000432000006d6f0000746f000072210000fc
:105000000d0a0000005400006f20000063680000db
:10501000616e000067650000207900006f75000078
:10502000722000006d6f0000746f0000722000009d
:10503000746f000020700000657200006d61000058
:105040006e6500006e740000206d00006167000056
:10505000657400002c2000007468000065200000ca
:10506000636f00006d6d0000616e00006420000041
:1050700069730000202700006d6f0000746f00004e
:10508000722d00007479000070650000203200006d
:10509000270d00000a000000727500006e2d000050
:1050a000736100006c690000656e000063790000a8
:1050b0002d7400006573000074000000546f000040
:1050c00020630000686100006e670000652000003a
:1050d000796f000075720000206d00006f74000091
:1050e0006f720000207400006f20000070650000e7
:1050f000726d0000616e0000656e0000742000009b
:105100006d61000067650000742c000020740000d1
:1051100068650000206300006f6d00006d61000095
:105120006e6400002069000073200000276d0000fd
:105130006f7400006f7200002d7400007970000021
:105140006520000032270000206f00007220000060
:10515000276d00006f7400006f7200002d74000056
:105160007970000065200000332700000d0a000060
:10517000006300006f6e00006669000067000000b9
:105180007365000074740000696e000067730000ae
:105190000064000061740000612d00007374000061
:1051a00072650000616d00002d70000065720000e6
:1051b000696f000064000000746900006d65000004
:1051c0002c000000496400002c0000004971000020
:1051d0002c0000004964000052650000662c0000ad
:1051e0000049000071520000656600002c000000bc
:1051f000496100002c000000496200002c00000002
:10520000496300002c00000070650000726300001c
:10521000656e0000745600006f6c0000747300002f
:105220002c000000626100007474000065720000d0
:10523000794100006d700000732c000000720000c6
:105240006177000054680000726f00007474000001
:105250006c6500002c00000074680000726f000094
:10526000747400006c6500002c0000007465000080
:105270006d700000657200006175000072650000cd
:105280002c000000736c0000697000005370000077
:1052900065650000642c0000006500006c6500007e
:1052a0006374000072690000636100006c530000c9
:1052b00070650000656400002c0000006d65000052
:1052c00063680000616e000069630000616c0000ab
:1052d0005370000065650000642c00000070000041
:1052e0006f730000636e0000742c0000000d00005e
:1052f0000a00000064610000746100000073000097
:1053000074720000656100006d2d0000746900007a
:105310006d6500000073000074720000656100009c
:105320006d2d0000696400000073000074720000bd
:10533000656100006d2d00006971000000730000c0
:1053400074720000656100006d2d0000696400004a
:105350007265000066000000737400007265000052
:10536000616d00002d69000071720000656600002b
:105370000073000074720000656100006d2d000074
:105380006961000000730000747200006561000034
:105390006d2d00006962000000730000747200004f
:1053a000656100006d2d000069630000007300005e
:1053b00074720000656100006d2d000070650000d2
:1053c00072630000656e0000742d0000766f0000af
:1053d0006c740000730000007374000072650000bc
:1053e000616d00002d6200006174000074650000b2
:1053f000727900002d6100006d70000073000000e4
:105400007374000072650000616d00002d72000071
:10541000617700002d740000687200006f74000056
:10542000746c000065000000737400007265000079
:10543000616d00002d740000687200006f74000040
:10544000746c000065000000737400007265000059
:10545000616d00002d740000656d00007065000036
:105460007261000074750000726500000073000036
:1054700074720000656100006d2d0000736c000007
:10548000697000002d730000706500006564000005
:105490000073000074720000656100006d2d000053
:1054a000656c0000656300007472000069630000b1
:1054b000616c00002d7300007065000065640000e1
:1054c0000073000074720000656100006d2d000023
:1054d0006d65000063680000616e00006963000094
:1054e000616c00002d7300007065000065640000b1
:1054f0000073000074720000656100006d2d0000f3
:10550000706f0000736300006e740000006f000095
:105510006666000000320000003100000034000028
:1055200000330000003f0000004c000069730000e1
:10553000742000006f66000020760000616c00009f
:1055400069640000206300006f6d00006d61000061
:105550006e640000733a00000d0a00000073000042
:1055600061760000650d00000a0000006d6f00000c
:10557000746f0000722d00007479000070650000e7
:105580002078000078780000202800007261000078
:105590006e6700006c650000203100002d340000b3
:1055a000290d00000a0000006b7000002078000048
:1055b0007878000020280000726100006e6700000b
:1055c00065200000302d0000333200003736000027
:1055d000372900000d0a0000006b00006920000060
:1055e000787800007820000028720000616e0000ca
:1055f00067650000203000002d33000032370000c6
:1056000036370000290d00000a0000006375000015
:1056100072720000656e0000742d0000736500005a
:105620006e7300006f7200002d6100006d7000004d
:10563000732d000070650000722d0000766f000071
:105640006c740000207800007878000020280000aa
:10565000726100006e67000065200000302d0000c0
:1056600034380000302900000d0a0000006d0000f1
:10567000617800002d72000065670000656e000013
:105680002d7000006f73000069740000696f0000e6
:105690006e2000007878000078200000287200005a
:1056a000616e000067650000203000002d310000b1
:1056b00030320000332900000d0a0000006d0000a8
:1056c000696e00002d72000065670000656e0000c5
:1056d0002d7000006f73000069740000696f000096
:1056e0006e2000007878000078200000287200000a
:1056f000616e000067650000203000002d31000061
:1057000030320000332900000d0a0000006d000057
:10571000696e00002d740000687200006f74000054
:10572000746c0000652d0000706f0000736900004c
:10573000746900006f6e0000207800007878000027
:1057400020280000726100006e67000065200000e4
:10575000302d00003130000032330000290d0000f0
:105760000a0000006d610000782d000074680000e0
:10577000726f0000747400006c6500002d700000f2
:105780006f73000069740000696f00006e200000f4
:10579000787800007820000028720000616e000018
:1057a00067650000203000002d310000303200001d
:1057b000332900000d0a000000660000617500003a
:1057c0006c7400002d740000687200006f7400009b
:1057d000746c0000652d0000706f0000736900009c
:1057e000746900006f6e0000207800007878000077
:1057f00020280000726100006e6700006520000034
:10580000302d00003130000032330000290d00003f
:105810000a0000006d610000782d00006261000048
:105820007474000065720000792d0000616d000045
:1058300070730000207800007878000020280000b5
:10584000726100006e67000065200000302d0000ce
:1058500039390000392900000d0a0000006d0000f0
:10586000617800002d620000617400007465000022
:10587000727900002d6100006d700000732d000032
:1058800072650000676500006e20000078780000f7
:105890007820000028720000616e0000676500003b
:1058a000203000002d39000039390000290d00009a
:1058b0000a0000006d610000782d00006d6f00008f
:1058c000746f0000722d0000616d000070730000a5
:1058d0002078000078780000202800007261000025
:1058e0006e67000065200000302d0000393900008f
:1058f000392900000d0a0000006d000061780000e9
:105900002d6d00006f7400006f7200002d610000ab
:105910006d700000732d0000726500006765000067
:105920006e200000787800007820000028720000c7
:10593000616e000067650000203000002d39000016
:1059400039390000290d00000a00000070720000c3
:10595000656300006861000072670000652d00004b
:10596000746900006d650000207800007878000000
:1059700020280000696e000020740000656e0000a1
:1059800074680000732000006f6600002061000052
:1059900020730000656300002e200000726100008b
:1059a0006e67000065200000302d000039390000ce
:1059b00039390000290d00000a000000726f000054
:1059c000746f0000722d0000746900006d650000a6
:1059d0002d6300006f6e000073740000616e0000a4
:1059e000742000007878000078200000286900000a
:1059f0006e2000006d6900006c6c0000697300008f
:105a0000656300002e200000726100006e670000d8
:105a100065200000302d00003135000030290000e5
:105a20000d0a0000007000006f6c0000652d000082
:105a30007061000069720000732000007878000037
:105a40007820000028720000616e00006765000089
:105a5000203000002d39000039390000290d0000e8
:105a60000a0000006d610000782d000072700000d7
:105a70006d20000078780000782000002872000077
